:10000000A4C00000BEC00000BCC00000BAC0000018
:10001000B8C00000B6C00000B4C00000B2C000000C
:10002000B0C00000AEC00000AFC4000071C5000049
:10003000A8C00000A6C00000A4C00000A2C000002C
:10004000A0C000009EC000009CC000009AC000003C
:1000500098C0000096C0000094C0000092C000004C
:1000600090C000009FC100008CC000008AC000004A
:1000700088C0000086C0000084C0000082C000006C
:1000800080C000007EC000007CC000007AC000007C
:1000900078C0000076C0000074C0000072C000008C
:1000A00070C000006EC000006CC000002E034C0049
:1000B00055004600410020005500530042002D002D
:1000C000520053003200330032002000410064002F
:1000D00061007000740065007200000018034400A5
:1000E000650061006E002000430061006D00650046
:1000F0007200610000000403090409023E000201CD
:1001000000C03209040000010202010005240010B1
:1001100001042402060524060001070582030800E5
:10012000FF09040100020A00000007050402100094
:1001300005070583021000051201100102000008E6
:10014000EB034B2001000102DC0111241FBECFEFA5
:10015000DAE0DEBFCDBF11E0A0E0B1E0ECEBF8E10A
:1001600002C005900D92AA37B107D9F712E0AAE7AD
:10017000B1E001C01D92AD3CB107E1F723D00C9472
:100180005C0C3ECF9BB19F70982B9BB9089584B7B0
:10019000877F84BF88E10FB6F89480936000109247
:1001A00060000FBE90E080E80FB6F8948093610085
:1001B000909361000FBE8AB1806F8AB98BB18F7046
:1001C0008BB9C5C3CF93DF93CDB7DEB7A8970FB672
:1001D000F894DEBF0FBECDBFDADFEDE7F1E02FB759
:1001E000F89489E891E09183808393838283958357
:1001F000848389E092E09783868380E890E091870A
:100200008087138612862FBFE9E0F2E04FB7F8949B
:1002100025E132E0318320833383228335832483B5
:1002200025E932E0378326839187808713861286FB
:100230004FBF8DE491E065E972E00E94300980E1F2
:10024000A1DF78948BE0E82EF12CEC0EFD1E8EE100
:10025000F70111928A95E9F78DE491E060E071E091
:10026000E2D610E045E9642E42E0742E53EAA52E52
:1002700052E0B52EEEE1DE2E470180917A0188230F
:1002800009F473C010927A0188E091E065E972E0A8
:100290000E94930900D000D0EDB7FEB77282618250
:1002A000B482A3820E9483090F900F900F900F9049
:1002B0008DE491E061E171E0B6D68DE491E063EA0E
:1002C00072E0B1D6F5012D2D11922A95E9F7109221
:1002D0007C0110927B0149C08DE491E07AD7082F10
:1002E0008D3089F5CE010196B70143E050E0FCD78F
:1002F000812F90E0F701E80FF91F0083ECE0F0E0B8
:10030000EC0FFD1F8E0F9F1F2AE0FC0120838DE460
:1003100091E0B70188D6F7012D2D11922A95E9F7C2
:10032000CE01019667E171E043E050E0CFD700973E
:1003300019F58BE191E065E972E0F5D78BB190E1B9
:1003400089278BB919C0F401E10FF11D80831F5F6C
:100350001A3158F08DE491E065E271E064D6F40161
:100360002D2D11922A95E9F710E08DE491E0FBD64E
:10037000009709F0B1CF01C010E08DE491E0DCD628
:1003800067D57BCF80EAFECE80E1FCCE8DE491E0A4
:1003900026D6882311F080E601C080E9F3CE8DE4F3
:1003A00091E071C51F920F920FB60F9211242F93F7
:1003B0003F934F935F936F937F938F939F93AF93ED
:1003C000BF93CF93EF93FF93C091CE0080E391E072
:1003D00065E972E0A8D78EB3843009F580917B017E
:1003E00090917C018E31910589F48CE391E065E96F
:1003F00072E099D710927C0110927B018EE1E3EAC2
:10040000F2E0DF011D928A95E9F710C0FC01ED557D
:10041000FD4FC083019690937C0180937B01CD308A
:1004200011F0CA3019F481E080937A01FF91EF91C5
:10043000CF91BF91AF919F918F917F916F915F917C
:100440004F913F912F910F900FBE0F901F901895D5
:10045000CF93FC01A18DA150A23028F4B0E0A8599F
:10046000BE4FCC9101C0C0E0808D823009F4C860DD
:10047000828D873031F0883031F0863029F4C260C7
:1004800003C0C46001C0C6601092C9001092C800C9
:100490001092CA002489358946895789DA01C90131
:1004A000B695A7959795879580589B47A14EBF4FC6
:1004B000BC01CD01E9D6215030403093CD002093CE
:1004C000CC00C093CA0082E08093C80088E9809382
:1004D000C900CF910895923029F0933041F09130C6
:1004E000E9F417C08EE390E0EAEFF0E01BC0813042
:1004F00041F0813018F0823089F406C0E6EFF0E078
:1005000005C0ECEDF0E002C0ECEAF0E0849190E090
:1005100009C082E190E0E8E3F1E004C080E090E00F
:10052000E0E0F0E0DA011196FC93EE930895AF92CB
:10053000BF92CF92DF92EF92FF921F93CF93DF9300
:10054000EC017B016A0192D1182F8823A1F5C11417
:10055000D10439F0F60120813181E21AF30AC20F89
:10056000D31FAA24BB2422C08091E80085FD15C0BA
:100570008091E8008E778093E800C114D10449F09F
:10058000F601808191818A0D9B1D9183808315E006
:1005900012C06CD1882351F00DC089918093F10075
:1005A0000894E108F1080894A11CB11CE114F104BD
:1005B000D9F601C0182F812FDF91CF911F91FF90A5
:1005C000EF90DF90CF90BF90AF9008954091CB0215
:1005D0005091CC024617570720F4BA01FC0140E0C5
:1005E0003BC061157105D1F74091E8004E7740930B
:1005F000E800F4CF8EB3882309F443C08530E9F1D5
:100600008091E80083FD3BC08091E80082FD2FC00F
:100610008091E80080FF20C09091F3008091F2006B
:10062000392F20E090E0822B932B06C0419140931C
:10063000F1006150704001966115710519F0883024
:100640009105A0F341E08830910509F040E08091E8
:10065000E8008E778093E8006115710559F6442310
:1006600049F605C08EB3882361F0853061F0809132
:10067000E80082FFF7CF80E0089583E0089581E0ED
:10068000089582E0089583E008954091CB0250914F
:10069000CC024617570720F4BA01FC0140E03DC0E8
:1006A00061157105D1F74091E8004E774093E8005D
:1006B000F4CF8EB3882309F445C0853009F43EC0D9
:1006C0008091E80083FD3CC08091E80082FD30C04D
:1006D0008091E80080FF21C09091F3008091F200AA
:1006E000392F20E090E0822B932B07C04491409358
:1006F000F10031966150704001966115710519F055
:100700008830910598F341E08830910509F040E088
:100710008091E8008E778093E8006115710549F6B5
:10072000442339F605C08EB3882361F0853061F02B
:100730008091E80082FFF7CF80E0089583E008957C
:1007400081E0089582E0089583E00895982F2AC0FB
:100750009093E900981739F07091EC002091ED002A
:100760005091F00003C0242F762F50E021FF19C0D4
:100770003091EB003E7F3093EB003091ED003D7FF8
:100780003093ED003091EB0031603093EB007093CB
:10079000EC002093ED005093F0002091EE0027FF35
:1007A00008C09F5F9730A0F28F708093E90081E0CE
:1007B000089580E008950F931F93CF93DF93162F32
:1007C000EC0100E02AC09881992329F16B81E9812D
:1007D000FA812C81892F8F70873018F56295660F0A
:1007E000660F607C991F9927991F692B223010F0A2
:1007F00096E001C092E028E030E040E003C04F5FA7
:10080000220F331F2E173F07D0F34295407F492B0D
:100810009DDF882331F00F5F25960117A1F681E057
:1008200001C080E0DF91CF911F910F9108958091D9
:10083000C50287FF11C003C08EB38823B1F0809139
:10084000E80082FFF9CF8091E8008B778093E80081
:1008500008958EB3882349F08091E80080FFF9CF96
:100860008091E8008E778093E80008958091E400FD
:100870009091E50045E601C0C9012091EC0020FF00
:1008800022C02091E80020FD14C02EB3222399F04D
:10089000253099F02091EB0025FD11C02091E40056
:1008A0003091E5002817390741F3415029F784E0DA
:1008B000089580E0089582E0089583E0089581E03E
:1008C000089580E008952091E80022FFDECFF9CF5F
:1008D0000F931F93CF93DF934AD051D0C8EDD0E050
:1008E00088818F77888388818068888388818F7DDD
:1008F000888319BC1EBA1092C1021092C3021092D2
:10090000C20200EE10E0F80180818B7F8083888135
:100910008160888380E060E042E018DFE1EEF0E093
:1009200080818E7F8083E2EEF0E080818160808331
:10093000808188608083F80180818E7F80838881B8
:1009400080618883DF91CF911F910F910895E8ED29
:10095000F0E080818F7E8083E7EDF0E08081816030
:10096000808384E082BF81E08093C402B1CFE8ED50
:10097000F0E080818E7F80831092E20008951092D3
:10098000DA001092E10008951F920F920FB60F92B5
:1009900011242F933F934F935F936F937F938F9384
:1009A0009F93AF93BF93EF93FF938091E10082FFFA
:1009B0000AC08091E20082FF06C08091E1008B7F37
:1009C0008093E10044D28091DA0080FF1BC08091C7
:1009D000D80080FF17C08091DA008E7F8093DA0004
:1009E0008091D90080FF0BC080E189BD82E189BD83
:1009F00009B400FEFDCF81E08EBBC4DC03C019BC8E
:100A00001EBAC2DC8091E10080FF17C08091E20035
:100A100080FF13C08091E2008E7F8093E20080917E
:100A2000E20080618093E2008091D8008062809330
:100A3000D80019BC85E08EBB0AD28091E10084FF0A
:100A40002CC08091E20084FF28C080E189BD82E152
:100A500089BD09B400FEFDCF8091D8008F7D8093C1
:100A6000D8008091E1008F7E8093E1008091E200C8
:100A70008F7E8093E2008091E20081608093E200AB
:100A80008091C102882321F48091E30087FF02C096
:100A900084E001C081E08EBBDAD18091E10083FF68
:100AA00026C08091E20083FF22C08091E100877F11
:100AB0008093E10082E08EBB1092C1028091E10040
:100AC0008E7F8093E1008091E2008E7F8093E20030
:100AD0008091E20080618093E20080E060E042E08B
:100AE00035DE8091F00088608093F000B0D1FF91F6
:100AF000EF91BF91AF919F918F917F916F915F9196
:100B00004F913F912F910F900FBE0F901F9018950E
:100B10001F920F920FB60F9211242F933F934F9372
:100B20005F936F937F938F939F93AF93BF93CF9375
:100B3000EF93FF93C091E900CF708091EC00109289
:100B4000E9008091F000877F8093F00078941BD0BB
:100B50001092E9008091F00088608093F000C093CB
:100B6000E900FF91EF91CF91BF91AF919F918F914C
:100B70007F916F915F914F913F912F910F900FBE99
:100B80000F901F9018951F93CF93DF93CDB7DEB7CB
:100B9000AC970FB6F894DEBF0FBECDBF80E0E5EC9A
:100BA000F2E09091F10091938F5F8830D1F7F7DBFD
:100BB0008091E80083FF33C18091C5022091C60275
:100BC000253009F484C0263040F42130A1F12130D1
:100BD00070F0233009F023C12EC0283009F4F2C090
:100BE000293009F401C1263009F019C192C08038BA
:100BF00021F0823809F013C108C08091C20290919F
:100C0000C302992371F082600CC08091C9028F7079
:100C10008093E9009091EB0081E095FF80E01092D5
:100C2000E9009091E800977F9093E8008093F100AD
:100C30001092F100D2C0882319F0823009F0EFC081
:100C400090E08F719070009729F08230910509F043
:100C5000E6C00BC08091C702813009F0E0C02330AC
:100C600009F080E08093C3022CC08091C7028823E2
:100C700041F52091C9022F7009F4D1C02093E900F9
:100C80008091EB0080FF1DC08091C602833021F46B
:100C90008091EB00806213C08091EB0080618093B3
:100CA000EB0081E090E002C0880F991F2A95E2F7DF
:100CB0008093EA001092EA008091EB0088608093B4
:100CC000EB001092E9008091E800877F89C08823BB
:100CD00009F0A5C01091C7021F778091E3008078CA
:100CE000812B8093E3008091E800877F8093E80068
:100CF0009EDD8091E80080FFFCCF8091E30080685A
:100D00008093E300112311F083E001C082E08EBBE9
:100D100086C08058823008F082C08091C7029091CE
:100D2000C80223E08C3D9207A9F583E08C838AE218
:100D30008B835FB7F894DE01139680E090E04EE07D
:100D400061E2E42FF0E060935700E49180FF03C07C
:100D5000E295EF704F5FEF702E2F30E0EA3018F021
:100D6000295C3F4F02C0205D3F4F13963C932E936A
:100D70001297019612968431910519F75FBF809101
:100D8000E800877F8093E800CE0103966AE270E076
:100D90001DDC12C06091C902AE014F5F5F4F9BDB4B
:100DA000BC01009709F43BC08091E800877F8093E5
:100DB000E80089819A8169DC8091E8008B778093D3
:100DC000E8002DC0803859F58091E800877F809336
:100DD000E8008091C1028093F1008091E8008E7755
:100DE0008093E80024DD1BC08823C9F49091C702DA
:100DF0009230A8F48091E800877F8093E800909378
:100E0000C10215DD8091C102882321F48091E300A5
:100E100087FF02C084E001C081E08EBBB7DA809119
:100E2000E80083FF0AC08091E800877F8093E80094
:100E30008091EB0080628093EB00AC960FB6F89443
:100E4000DEBF0FBECDBFDF91CF911F9108950895F2
:100E5000CF938EB38823A9F08091E9008F70909191
:100E6000EC0090FF02C0C0E801C0C0E0C82B1092A7
:100E7000E9008091E80083FF01C085DECF70C09358
:100E8000E900CF910895CF93DF93EC018091E800C2
:100E900083FFA2C0888190E02091C9023091CA02EC
:100EA0002817390709F098C08091C602813269F08D
:100EB000823220F4803209F08FC03CC0823209F4C3
:100EC0006AC0833209F088C079C08091C502813A36
:100ED00009F082C08091E800877F8093E8008091CC
:100EE000E80080FFFCCF8C899D89AE89BF89809303
:100EF000F100492F5A2F6B2F77274093F100AD0156
:100F0000662777274093F1008B2F9927AA27BB27C5
:100F10008093F100888D8093F100898D8093F1009A
:100F20008A8D8093F1008091E8008E778093E800AD
:100F30007EDC52C08091C502813209F04DC08091A3
:100F4000E800877F8093E80004C08EB3882309F40B
:100F500043C08091E80082FFF8CF3091F1002091EA
:100F6000F1009091F1008091F1003C8B2D8B9E8BD4
:100F70008F8B8091F100888F8091F100898F809113
:100F8000F1008A8F8091E8008B778093E8004FDC36
:100F9000CE015EDA21C08091C5028132E9F48091F0
:100FA000E800877F8093E80042DC8091C70290913F
:100FB000C802998B888BCE0166D10EC08091C50284
:100FC000813251F48091E800877F8093E8002FDC24
:100FD000CE016091C70257D1DF91CF910895CF9391
:100FE000DF93EC014096FC018BE0DF011D928A95B6
:100FF000E9F782E08C83898783E08E87CE010196B2
:1010000061E0D9DB882359F0CE01069661E0D3DB9D
:10101000882329F0CE010B9661E0CDDB01C080E092
:10102000DF91CF910895FC01CB012EB32430C1F4A0
:10103000448955896689778941155105610571058E
:1010400089F021812F702093E900FC01019000209C
:10105000E9F73197E81BF90BBF0140E050E067CAA0
:1010600082E0089582E00895CF93FC01C62F8EB3ED
:101070008430E9F444895589668977894115510599
:1010800061057105A1F081818F708093E9008091E5
:10109000E80085FD08C08091E8008E778093E80025
:1010A000E5DB882329F4C093F10080E001C082E0F1
:1010B000CF910895282FFB0184859585622FD4DF79
:1010C000882319F08FEF9FEF089580E090E0089556
:1010D000FC018EB3843051F544895589668977893E
:1010E000411551056105710509F181818F7080936A
:1010F000E9009091F3008091F200392F20E090E018
:10110000822B932B0097A1F09091E8008091E8004A
:101110008E778093E80095FD0DC0A8DB882359F4F5
:101120009091E8009E779093E800089582E00895FA
:1011300080E0089580E008952EB3243099F4FC01F6
:10114000448955896689778941155105610571057D
:1011500049F021812F702093E9002091E80020FFC1
:1011600001C0B6CF0895FC018EB3843061F5448987
:10117000558966897789411551056105710519F110
:1011800086818F708093E9008091E80082FF1EC005
:101190009091F3008091F200392F20E090E0822BB3
:1011A000932B009731F48091E8008B778093E800CF
:1011B0000AC09091F3008091F200392F20E090E076
:1011C000822B932B089580E090E0089580E090E0DA
:1011D0000895FC018EB38430A1F544895589668950
:1011E0007789411551056105710559F186818F7027
:1011F0008093E9008091E80082FF26C09091F3007F
:101200008091F200392F20E090E0822B932B009701
:1012100021F08091F10090E002C08FEF9FEF3091BC
:10122000F3002091F200532F40E030E0242B352BC7
:101230002115310559F42091E8002B772093E8001F
:1012400008958FEF9FEF08958FEF9FEF0895FC01B2
:1012500084859585BEDF97FF02C08EEF9FEF0895CE
:10126000FB012EE0DB011D922A95E9F723E02383A1
:101270002AE538E03187208727E239E03387228763
:101280009587848708950895A1E21A2EAA1BBB1B97
:10129000FD010DC0AA1FBB1FEE1FFF1FA217B30742
:1012A000E407F50720F0A21BB30BE40BF50B661F58
:1012B000771F881F991F1A9469F76095709580951C
:1012C00090959B01AC01BD01CF010895FB01DC01AC
:1012D0004150504030F08D910190801919F4002058
:1012E000B9F7881B990B0895FB01DC014150504070
:1012F00048F001900D920020C9F701C01D924150A5
:101300005040E0F70895A0E0B0E0E8E8F9E0ADC2B1
:10131000AE01475F5F4F8D819E816F81788526D0BA
:101320002096E2E0BEC2EF92FF920F931F93CF93FD
:10133000DF937C01EB018B8181FF11C000E010E0A5
:1013400008C0E885F985BE010995009711F00FEFF7
:101350001FEFF70181917F01882399F702C00FEFFA
:101360001FEFC801CDB7DEB7E6E097C2ADE0B0E051
:10137000EBEBF9E06AC23C017D876C875A01FC0106
:1013800017821682838181FFBBC12E010894411C04
:10139000511CF3019381EC85FD8593FD859193FFAD
:1013A0008191FD87EC87882309F4A6C1853241F439
:1013B00093FD859193FF8191FD87EC87853221F420
:1013C00090E0B301B8D1E5CFFF24EE2410E0103255
:1013D000B0F48B3269F08C3228F4803251F08332D1
:1013E00071F40BC08D3239F0803349F411602CC098
:1013F0001260146029C0186027C0106125C017FD55
:101400002EC0282F20532A3098F416FF08C08F2DA5
:10141000880FF82EFF0CFF0CF80EF20E15C08E2D63
:10142000880FE82EEE0CEE0CE80EE20E10620CC0F7
:101430008E3221F416FD60C1106406C08C3611F4A2
:10144000106802C0883659F4EC85FD8593FD8591BE
:1014500093FF8191FD87EC87882309F0B8CF982FFF
:101460009554933018F09052933038F424E030E0E3
:10147000A20EB31E3FE339830FC0833631F08337AA
:1014800081F0833509F056C021C0F5018081898340
:1014900022E030E0A20EB31E21E0C22ED12C420188
:1014A00013C092E0292E312C2A0C3B1CF5018080C0
:1014B000918016FF03C06F2D70E002C06FEF7FEFC9
:1014C000C4012ED16C0151011F7714C082E0282E77
:1014D000312C2A0C3B1CF5018080918016FF03C043
:1014E0006F2D70E002C06FEF7FEFC4010ED16C0171
:1014F0001068510113FD1AC005C080E290E0B301ED
:101500001AD1EA948E2D90E0C816D906B0F30EC019
:10151000F40117FD859117FF81914F0190E0B30110
:101520000AD1E110EA940894C108D108C114D10489
:1015300079F7DFC0843611F0893649F5F50117FFD8
:1015400007C080819181A281B38124E030E008C08E
:1015500080819181AA2797FDA095BA2F22E030E0E3
:10156000A20EB31E012F0F76B7FF08C0B095A0954D
:10157000909581959F4FAF4FBF4F0068BC01CD0143
:10158000A2012AE030E003D1D82ED4183EC085371E
:1015900021F41F7E2AE030E020C0197F8F36A9F0A9
:1015A000803720F4883509F0A7C00BC0803721F0C0
:1015B000883709F0A1C001C0106114FF09C0146090
:1015C00007C014FF08C0166006C028E030E005C060
:1015D00020E130E002C020E132E0F50117FF07C052
:1015E000608171818281938144E050E006C0608116
:1015F000718180E090E042E050E0A40EB51EA201AF
:10160000C6D0D82ED418012F0F7706FF09C00E7F41
:10161000DF1430F404FF06C002FD04C00F7E02C0D8
:101620001D2D01C01F2D802F90E004FF0CC0FE0176
:10163000ED0DF11D2081203311F4097E09C002FF58
:1016400006C01E5F05C086789070009709F01F5F86
:10165000802E992403FD11C000FF0CC0FD2C1E1527
:1016600048F4FE0CF11A1E2D05C080E290E0B30193
:1016700062D01F5F1E15C8F304C01E1510F4E11AD6
:1016800001C0EE2484FE0EC080E390E0B30153D08D
:1016900082FE1DC081FE03C088E590E010C088E78F
:1016A00090E00DC0C40186789070009781F081FCB5
:1016B00002C080E201C08BE207FD8DE290E0B30141
:1016C0003AD005C080E390E0B30135D0FA94DF143E
:1016D000C8F3DA94F201ED0DF11D808190E0B301C1
:1016E0002AD0DD20B1F705C080E290E0B30123D01D
:1016F000EA94EE20C9F74DCEF3018681978102C0AE
:101700008FEF9FEF2D96E2E1BCC0FC010590615088
:1017100070400110D8F7809590958E0F9F1F089507
:10172000FC016150704001900110D8F780959095B0
:101730008E0F9F1F08950F931F93CF93DF938C01FC
:10174000EB018B8181FF1BC082FF0DC02E813F8189
:101750008C819D812817390764F4E881F981019310
:10176000F983E88306C0E885F985802F09950097FD
:1017700031F48E819F8101969F838E8302C00FEF8B
:101780001FEFC801DF91CF911F910F910895FA01CA
:10179000AA27283051F1203181F1E8946F936E7FB0
:1017A0006E5F7F4F8F4F9F4FAF4FB1E03ED0B4E0A1
:1017B0003CD0670F781F891F9A1FA11D680F791FE2
:1017C0008A1F911DA11D6A0F711D811D911DA11DF3
:1017D00020D009F468943F912AE0269F1124301903
:1017E000305D3193DEF6CF010895462F4770405D9E
:1017F0004193B3E00FD0C9F7F6CF462F4F70405D4D
:101800004A3318F0495D31FD4052419302D0A9F7A7
:10181000EACFB4E0A6959795879577956795BA95A1
:10182000C9F700976105710508959B01AC010A2E67
:1018300006945795479537952795BA95C9F7620F3E
:10184000731F841F951FA01D08952F923F924F92E2
:101850005F926F927F928F929F92AF92BF92CF9240
:10186000DF92EF92FF920F931F93CF93DF93CDB749
:10187000DEB7CA1BDB0B0FB6F894DEBF0FBECDBFC1
:1018800009942A88398848885F846E847D848C8492
:101890009B84AA84B984C884DF80EE80FD800C819B
:1018A0001B81AA81B981CE0FD11D0FB6F894DEBF7E
:0C18B0000FBECDBFED010895F894FFCFEE
:1018BC0052656164790D0A00667072696E743A2023
:1018CC00004344433A20006C656400536574204C1B
:1018DC0045440D0A004F766572666C6F770D0A00F1
:1018EC00696E746572727570740D0A004F7665724C
:1018FC00666C6F77204572726F720D0A0000831050
:10190C00000001041000000182080000010000002A
:10191C0000000000000000003020A12000000000AA
:0A192C000200A1010000000000000D
:00000001FF
