:100000000C9456000C9473000C946B010C949501A5
:100010000C94BD010C9473000C9473000C94730049
:100020000C9473000C9438010C9473000C947300BE
:100030000C9473000C9473000C9473000C94730074
:100040000C9473000C9473000C9473000C94730064
:100050000C9473000C9473000C9473000C94730054
:100060000C9473000C9473000C9473000C94730044
:100070000C9473000C9473000C9473000C94730034
:100080000C9473000C9473000C9473000C94730024
:100090000C9473000C9473000C9473000C94730014
:1000A0000C9473000C9473000C94730011241FBE05
:1000B000CFEFDAE0DEBFCDBF11E0A0E0B1E0EAE3D0
:1000C000F5E002C005900D92A030B107D9F721E00C
:1000D000A0E0B1E001C01D92AC30B207E1F70E9490
:1000E000F0010C949B020C940000E8E6F0E08081A3
:1000F00081608083EBE6F0E080818F618083E9E6B8
:10010000F0E08081846580838DB38E608DBB10921A
:10011000050110920401109207011092060110923D
:1001200009011092080110920B0110920A018FEF41
:100130008093000180930101809302018093030169
:1001400008956130C1F028F0623049F06330C9F49D
:100150000CC08130C1F08230C1F080E00895882366
:10016000B1F08330B1F080E008958230A1F08130A9
:10017000A1F080E00895833091F0882391F080E031
:10018000089580E0089581E008958FEF089581E05B
:1001900008958FEF089581E008958FEF089581E02D
:1001A00008958FEF0895DF92EF92FF920F931F93C0
:1001B000CF93DF93462350E0BA0102C0759567954F
:1001C0002A95E2F79B01D62EE82FF0E0DF01A05040
:1001D000BF4F8C918617B9F08F01000F111F0C5F74
:1001E0001E4FD801ED90FC90EF01C050DF4F6881A9
:1001F000822F0E94A100E80EF11C87FDFA94F801FD
:10020000F182E082D882DF91CF911F910F91FF9010
:10021000EF90DF900895DF92EF92FF920F931F937C
:10022000CF93DF9383B199B1829581709270D92E6B
:10023000D82A809102018D1599F008E011E0F801AB
:10024000E080F180C2E0D1E068818D2D0E94A100A4
:10025000E80EF11C87FDFA94F801F182E082D88261
:10026000DF91CF911F910F91FF90EF90DF90089554
:100270001F920F920FB60F9211242F933F934F931B
:100280005F936F937F938F939F93AF93BF93CF931E
:10029000EF93FF93C3B120E043E06C2F80E00E9416
:1002A000D30022E04CE06C2F81E00E94D3000E943A
:1002B0000B01FF91EF91CF91BF91AF919F918F91E2
:1002C0007F916F915F914F913F912F910F900FBE52
:1002D0000F901F9018951F920F920FB60F92112436
:1002E0002F933F934F935F936F937F938F939F933E
:1002F000AF93BF93EF93FF9369B120E043E082E0B7
:100300000E94D3000E940B01FF91EF91BF91AF912A
:100310009F918F917F916F915F914F913F912F911D
:100320000F900FBE0F901F9018951F920F920FB64F
:100330000F9211242F933F934F935F936F937F936B
:100340008F939F93AF93BF93EF93FF9369B122E095
:100350004CE083E00E94D300FF91EF91BF91AF91F9
:100360009F918F917F916F915F914F913F912F91CD
:100370000F900FBE0F901F9018951F920F920FB6FF
:100380000F9211242F933F934F935F936F937F931B
:100390008F939F93AF93BF93EF93FF9369B122E045
:1003A0004CE083E00E94D300FF91EF91BF91AF91A9
:1003B0009F918F917F916F915F914F913F912F917D
:1003C0000F900FBE0F901F901895009741F0EFE926
:1003D000FFE03197F1F700C000000197C1F70895E1
:1003E0000E942B020E947500789460E070E080E02B
:1003F0000E946602FF24F394C0E0D0E008E011E020
:10040000EE24E394D12C03C0FD2C01C0FE2C82E32A
:1004100090E00E94E501F80180819181892B31F003
:100420006081718182E00E946602F1CFF1E0FF12EB
:1004300009C02A96BE0182E00E946602C03FD10533
:100440001CF7E5CF2A97BE0182E00E946602C53103
:10045000D105E4F2DCCF84B5816084BDE0E8F0E052
:1004600080818160808385B58E7F85BD85B5826002
:1004700085BD85B58B7F85BDA1E8B0E08C918E7F71
:100480008C938C9182608C938C918B7F8C9317BC16
:1004900018BC109289001092880010928B00109264
:1004A0008A0084B5806884BD84B5806284BD808103
:1004B00080688083808180628083279A509A259A01
:1004C000269A549A559A569A579A0895843090F5D8
:1004D000972F991F9927991F19F0719561957109A7
:1004E0006F3F710514F06EEF70E0813069F028F015
:1004F000823089F08330F1F416C0992311F05C9AB0
:1005000001C05C9867BD0895992311F05D9A01C000
:100510005D9868BD0895992311F05E9A01C05E98B8
:10052000609388000895992311F05F9A01C05F9845
:0A05300060938A000895F894FFCF4D
:00000001FF
