:100000009BC00000B4C00000B2C00000B0C000003F
:10001000AEC00000ACC00000AAC00000A8C0000034
:10002000A6C00000A4C00000C0C3000087C4000038
:100030009EC000009CC000009AC0000098C0000054
:1000400096C0000094C0000092C0000090C0000064
:100050008EC000008CC000008AC0000088C0000074
:1000600086C0000084C0000082C0000080C0000084
:100070007EC000007CC000007AC0000078C0000094
:1000800076C0000074C0000072C0000070C00000A4
:100090006EC000006CC000006AC0000068C00000B4
:1000A00066C0000064C0000062C000001C034C0079
:1000B000550046004100200043004400430020005A
:1000C000440065006D006F000000180344006500E7
:1000D00061006E002000430061006D006500720049
:1000E000610000000403090409023E00020100C08F
:1000F000320904000001020201000524001001047D
:100100002402060524060001070582030800FF09F2
:10011000040100020A0000000705040210000507A0
:100120000583021000051201100102000008EB0314
:10013000442001000102DC0111241FBECFEFDAE0F0
:10014000DEBFCDBF11E0A0E0B1E0E6E0F1E102C02A
:1001500005900D92A835B107D9F711E0A8E5B1E0F7
:1001600001C01D92A337B107E1F725D0CAC748CF18
:100170009BB19F70982B9BB9089584B7877F84BFEC
:1001800088E10FB6F89480936000109260000FBE73
:1001900090E080E80FB6F89480936100909361003E
:1001A0000FBE8AB1806F8AB98BB18F708BB9E0D2E4
:1001B00080E18AB90895CF93DF93CDB7DEB7A897D2
:1001C0000FB6F894DEBF0FBECDBFD7DF8DE291E052
:1001D00068E571E065D780E1CBDF78948BE0E82EAD
:1001E000F12CEC0EFD1E8EE1F70111928A95E9F7D4
:1001F0008DE291E060E071E030D610E00EE12DE09C
:10020000D22E3AE0C32E40E1B42E53C08DE291E0ED
:10021000FFD68D3009F03BC0CE010196B70143E017
:1002200050E060D78DE291E0BE016F5F7F4F15D641
:100230008DE291E068E071E010D6CE01019664E1B4
:1002400071E043E050E040D7009741F48DE291E047
:1002500068E171E002D68BB18B258BB9812F90E0DC
:10026000F701E80FF91FD0822CE030E02C0F3D1F82
:10027000820F931FFC01C0828DE291E0B701EDD5A2
:10028000F701202F11922A95E9F710E018C0F70125
:10029000E10FF11D80831F5F1A3158F08DE291E06C
:1002A00062E271E0DAD5F701202F11922A95E9F781
:1002B00010E08DE291E075D6009709F0A7CF8DE2AE
:1002C00091E057D6DDD4F5CF80EA52CF80E150CF10
:1002D0008DE291E09ED5882311F080E601C080E98F
:1002E00047CF8DE291E0E8C4923029F0933041F09D
:1002F0009130E9F417C08EE390E0E8EEF0E01BC027
:10030000813041F0813018F0823089F406C0E4EE8B
:10031000F0E005C0EAECF0E002C0ECEAF0E0849125
:1003200090E009C082E190E0E6E2F1E004C080E004
:1003300090E0E0E0F0E0DA011196FC93EE9308958E
:10034000AF92BF92CF92DF92EF92FF921F93CF9323
:10035000DF93EC017B016A0198D1182F8823A1F566
:10036000C114D10439F0F60120813181E21AF30A77
:10037000C20FD31FAA24BB2422C08091E80085FDB0
:1003800015C08091E8008E778093E800C114D104F5
:1003900049F0F601808191818A0D9B1D91838083B4
:1003A00015E012C072D1882351F00DC0899180935D
:1003B000F1000894E108F1080894A11CB11CE114B3
:1003C000F104D9F601C0182F812FDF91CF911F9131
:1003D000FF90EF90DF90CF90BF90AF900895409145
:1003E0007101509172014617570720F4BA01FC01C0
:1003F00040E03CC061157105D1F74091E8004E77AF
:100400004093E800F4CF80916A01882309F444C046
:100410008530F1F18091E80083FD3CC08091E800D7
:1004200082FD30C08091E80080FF20C09091F300F1
:100430008091F200392F20E090E0822B932B06C0B0
:1004400041914093F1006150704001966115710532
:1004500019F088309105A0F341E08830910509F04A
:1004600040E08091E8008E778093E8006115710587
:1004700051F6442341F606C080916A01882361F059
:10048000853061F08091E80082FFF6CF80E008952A
:1004900083E0089581E0089582E0089583E008955F
:1004A00040917101509172014617570720F4BA012B
:1004B000FC0140E03EC061157105D1F74091E800B4
:1004C0004E774093E800F4CF80916A01882309F4C5
:1004D00046C0853009F43FC08091E80083FD3DC0EF
:1004E0008091E80082FD31C08091E80080FF21C04A
:1004F0009091F3008091F200392F20E090E0822B60
:10050000932B07C044914093F100319661507040A5
:1005100001966115710519F08830910598F341E055
:100520008830910509F040E08091E8008E77809353
:10053000E8006115710541F6442331F606C080914B
:100540006A01882361F0853061F08091E80082FFC4
:10055000F6CF80E0089583E0089581E0089582E079
:10056000089583E00895982F2AC09093E900981782
:1005700039F07091EC002091ED005091F00003C033
:10058000242F762F50E021FF19C03091EB003E7FE1
:100590003093EB003091ED003D7F3093ED003091D2
:1005A000EB0031603093EB007093EC002093ED0092
:1005B0005093F0002091EE0027FF08C09F5F973016
:1005C000A0F28F708093E90081E0089580E00895A3
:1005D0000F931F93CF93DF93162FEC0100E02AC0F7
:1005E0009881992329F16B81E981FA812C81892FE6
:1005F0008F70873018F56295660F660F607C991FC3
:100600009927991F692B223010F096E001C092E0E3
:1006100028E030E040E003C04F5F220F331F2E1769
:100620003F07D0F34295407F492B9DDF882331F06F
:100630000F5F25960117A1F681E001C080E0DF91F0
:10064000CF911F910F91089580916B0187FF13C087
:1006500004C080916A018823B9F08091E80082FF8C
:10066000F8CF8091E8008B778093E800089580911F
:100670006A01882349F08091E80080FFF8CF8091DB
:10068000E8008E778093E80008958091E4009091CF
:10069000E50045E601C0C9012091EC0020FF23C020
:1006A0002091E80020FD15C020916A01222399F0D5
:1006B000253099F02091EB0025FD11C02091E40038
:1006C0003091E5002817390739F3415021F784E0CC
:1006D000089580E0089582E0089583E0089581E020
:1006E000089580E008952091E80022FFDDCFF9CF42
:1006F0000F931F93CF93DF934BD052D0C8EDD0E030
:1007000088818F77888388818068888388818F7DBE
:10071000888319BC10926A011092660110926801D8
:100720001092670100EE10E0F80180818B7F8083DA
:1007300088818160888380E060E042E014DFE1EE40
:10074000F0E080818E7F8083E2EEF0E08081816046
:100750008083808188608083F80180818E7F8083A0
:10076000888180618883DF91CF911F910F910895D7
:10077000E8EDF0E080818F7E8083E7EDF0E080811E
:100780008160808384E082BF81E080936901B0CF83
:10079000E8EDF0E080818E7F80831092E200089582
:1007A0001092DA001092E10008951F920F920FB696
:1007B0000F9211242F933F934F935F936F937F93E7
:1007C0008F939F93AF93BF93EF93FF938091E1003B
:1007D00082FF0AC08091E20082FF06C08091E100A2
:1007E0008B7F8093E1004BD28091DA0080FF1DC0A7
:1007F0008091D80080FF19C08091DA008E7F8093AD
:10080000DA008091D90080FF0CC080E189BD82E1CF
:1008100089BD09B400FEFDCF81E080936A0154DDFB
:1008200004C019BC10926A0151DD8091E10080FF83
:1008300018C08091E20080FF14C08091E2008E7F9A
:100840008093E2008091E20080618093E2008091D9
:10085000D80080628093D80019BC85E080936A013B
:100860000ED28091E10084FF2DC08091E20084FFD0
:1008700029C080E189BD82E189BD09B400FEFDCFB8
:100880008091D8008F7D8093D8008091E1008F7E89
:100890008093E1008091E2008F7E8093E20080915E
:1008A000E20081608093E20080916601882321F458
:1008B0008091E30087FF02C084E001C081E0809363
:1008C0006A01DDD18091E10083FF27C08091E200C1
:1008D00083FF23C08091E100877F8093E10082E065
:1008E00080936A01109266018091E1008E7F80936F
:1008F000E1008091E2008E7F8093E2008091E2002F
:1009000080618093E20080E060E042E02CDE809134
:10091000F00088608093F000B2D1FF91EF91BF9119
:10092000AF919F918F917F916F915F914F913F9187
:100930002F910F900FBE0F901F9018951F920F923E
:100940000FB60F9211242F933F934F935F936F93A2
:100950007F938F939F93AF93BF93CF93EF93FF9327
:10096000C091E900CF708091EC001092E900809175
:10097000F000877F8093F00078941BD01092E900FC
:100980008091F00088608093F000C093E900FF91AF
:10099000EF91CF91BF91AF919F918F917F916F9187
:1009A0005F914F913F912F910F900FBE0F901F902D
:1009B00018951F93CF93DF93CDB7DEB7AC970FB6E3
:1009C000F894DEBF0FBECDBF80E0EBE6F1E0909182
:1009D000F10091938F5F8830D1F783DC8091E8003C
:1009E00083FF35C180916B0120916C01253009F4A2
:1009F00084C0263040F42130A1F1213070F0233042
:100A000009F025C12EC0283009F4F3C0293009F4BB
:100A100002C1263009F01BC193C0803821F0823812
:100A200009F015C108C08091670190916801992370
:100A300071F082600CC080916F018F708093E9002B
:100A40009091EB0081E095FF80E01092E900909199
:100A5000E800977F9093E8008093F1001092F100F6
:100A6000D3C0882319F0823009F0F1C090E08F7173
:100A70009070009729F08230910509F0E8C00BC012
:100A800080916D01813009F0E2C0233009F080E0EF
:100A9000809368012CC080916D01882341F52091DD
:100AA0006F012F7009F4D3C02093E9008091EB000F
:100AB00080FF1DC080916C01833021F48091EB0098
:100AC000806213C08091EB0080618093EB0081E035
:100AD00090E002C0880F991F2A95E2F78093EA0000
:100AE0001092EA008091EB0088608093EB001092F6
:100AF000E9008091E800877F8AC0882309F0A7C0B9
:100B000010916D011F778091E3008078812B809395
:100B1000E3008091E800877F8093E80095DD809175
:100B2000E80080FFFCCF8091E30080688093E300C1
:100B3000112311F083E001C082E080936A0187C035
:100B40008058823008F083C080916D0190916E01D1
:100B500023E08C3D9207A9F583E08C838AE28B83A6
:100B60005FB7F894DE01139680E090E04EE061E21A
:100B7000E42FF0E060935700E49180FF03C0E2951A
:100B8000EF704F5FEF702E2F30E0EA3018F0295CE5
:100B90003F4F02C0205D3F4F13963C932E93129718
:100BA000019612968431910519F75FBF8091E80094
:100BB000877F8093E800CE0103966AE270E00FDC45
:100BC00012C060916F01AE014F5F5F4F8DDBBC01C2
:100BD000009709F43CC08091E800877F8093E8008B
:100BE00089819A815DDC8091E8008B778093E800B1
:100BF0002EC0803861F58091E800877F8093E800FF
:100C0000809166018093F1008091E8008E77809357
:100C1000E8001ADD1CC08823D1F490916D01923058
:100C2000B0F48091E800877F8093E800909366019C
:100C30000BDD80916601882321F48091E30087FF1A
:100C400002C084E001C081E080936A0141DB8091B1
:100C5000E80083FF0AC08091E800877F8093E80066
:100C60008091EB0080628093EB00AC960FB6F89415
:100C7000DEBF0FBECDBFDF91CF911F9108950895C4
:100C8000CF9380916A018823A9F08091E9008F7049
:100C90009091EC0090FF02C0C0E801C0C0E0C82BFA
:100CA0001092E9008091E80083FF01C082DECF70DE
:100CB000C093E900CF910895CF93DF93EC01809129
:100CC000E80083FFA3C0888190E020916F013091FC
:100CD00070012817390709F099C080916C018132A1
:100CE00069F0823220F4803209F090C03CC0823238
:100CF00009F46BC0833209F089C07AC080916B011E
:100D0000813A09F083C08091E800877F8093E800F2
:100D10008091E80080FFFCCF8C899D89AE89BF89D6
:100D20008093F100492F5A2F6B2F77274093F100C2
:100D3000AD01662777274093F1008B2F9927AA27CB
:100D4000BB278093F100888D8093F100898D80937B
:100D5000F1008A8D8093F1008091E8008E77809376
:100D6000E80072DC53C080916B01813209F04EC003
:100D70008091E800877F8093E80005C080916A0138
:100D8000882309F443C08091E80082FFF7CF3091B7
:100D9000F1002091F1009091F1008091F1003C8BE5
:100DA0002D8B9E8B8F8B8091F100888F8091F1002D
:100DB000898F8091F1008A8F8091E8008B778093F2
:100DC000E80042DCCE017FD121C080916B018132ED
:100DD000E9F48091E800877F8093E80035DC80911A
:100DE0006D0190916E01998B888BCE016CD10EC0F4
:100DF00080916B01813251F48091E800877F80936C
:100E0000E80022DCCE0160916D015DD1DF91CF91D0
:100E10000895CF93DF93EC014096FC018BE0DF0156
:100E20001D928A95E9F782E08C83898783E08E871B
:100E3000CE01019661E0CCDB882359F0CE01069605
:100E400061E0C6DB882329F0CE010B9661E0C0DBB0
:100E500001C080E0DF91CF910895FC01CB0120918A
:100E60006A012430C1F4448955896689778941151E
:100E700051056105710589F021812F702093E900EA
:100E8000FC0101900020E9F73197E81BF90BBF0145
:100E900040E050E055CA82E0089582E00895CF9383
:100EA000FC01C62F80916A018430E9F44489558998
:100EB000668977894115510561057105A1F0818128
:100EC0008F708093E9008091E80085FD08C08091D3
:100ED000E8008E778093E800D8DB882329F4C0935C
:100EE000F10080E001C082E0CF910895282FFB013E
:100EF00084859585622FD3DF882319F08FEF9FEFCC
:100F0000089580E090E00895FC0180916A018430AA
:100F100051F54489558966897789411551056105DF
:100F2000710509F181818F708093E9009091F30040
:100F30008091F200392F20E090E0822B932B0097D4
:100F4000A1F09091E8008091E8008E778093E8000E
:100F500095FD0DC09ADB882359F49091E8009E77A7
:100F60009093E800089582E0089580E0089580E07D
:100F7000089520916A01243099F4FC01448955892F
:100F800066897789411551056105710549F021810F
:100F90002F702093E9002091E80020FF01C0B4CF1A
:100FA0000895FC0180916A01843061F54489558976
:100FB00066897789411551056105710519F18681A9
:100FC0008F708093E9008091E80082FF1EC09091AD
:100FD000F3008091F200392F20E090E0822B932BD8
:100FE000009731F48091E8008B778093E8000AC085
:100FF0009091F3008091F200392F20E090E0822B55
:10100000932B089580E090E0089580E090E00895AB
:10101000FC0180916A018430A1F544895589668973
:101020007789411551056105710559F186818F70E8
:101030008093E9008091E80082FF26C09091F30040
:101040008091F200392F20E090E0822B932B0097C3
:1010500021F08091F10090E002C08FEF9FEF30917E
:10106000F3002091F200532F40E030E0242B352B89
:101070002115310559F42091E8002B772093E800E1
:1010800008958FEF9FEF08958FEF9FEF0895FC0174
:1010900084859585BDDF97FF02C08EEF9FEF089591
:1010A000FB012EE0DB011D922A95E9F723E0238363
:1010B00026E737E03187208727E438E03387228727
:1010C0009587848708950895FB01DC0141505040C5
:1010D00030F08D910190801919F40020B9F7881B28
:1010E000990B0895FB01DC014150504048F00190FC
:1010F0000D920020C9F701C01D9241505040E0F709
:061100000895F894FFCFF2
:1011060052656164790D0A003A20636F6D706172F1
:10111600650D0A006C656400536574204C45440DEA
:101126000A004F766572666C6F770D0A00008310B1
:101136000000010410000001820800000100000008
:101146000000000000000000A120000000000200D6
:08115600A101000000000000EF
:00000001FF
